{
  "contracts/MetaTokenTx.sol": {
    "TokenSender": {
      "abi": [
        {
          "inputs": [
            {
              "internalType": "address",
              "name": "sender",
              "type": "address"
            },
            {
              "internalType": "uint256",
              "name": "amount",
              "type": "uint256"
            },
            {
              "internalType": "address",
              "name": "recipient",
              "type": "address"
            },
            {
              "internalType": "address",
              "name": "tokenContract",
              "type": "address"
            }
          ],
          "name": "getHash",
          "outputs": [
            {
              "internalType": "bytes32",
              "name": "",
              "type": "bytes32"
            }
          ],
          "stateMutability": "pure",
          "type": "function"
        },
        {
          "inputs": [
            {
              "internalType": "address",
              "name": "sender",
              "type": "address"
            },
            {
              "internalType": "uint256",
              "name": "amount",
              "type": "uint256"
            },
            {
              "internalType": "address",
              "name": "recipient",
              "type": "address"
            },
            {
              "internalType": "address",
              "name": "tokenContract",
              "type": "address"
            },
            {
              "internalType": "bytes",
              "name": "signature",
              "type": "bytes"
            }
          ],
          "name": "transfer",
          "outputs": [],
          "stateMutability": "nonpayable",
          "type": "function"
        }
      ],
      "evm": {
        "bytecode": {
          "linkReferences": {},
          "object": "608060405234801561001057600080fd5b50611101806100206000396000f3fe608060405234801561001057600080fd5b50600436106100365760003560e01c80636a023b601461003b578063aad147561461006b575b600080fd5b6100556004803603810190610050919061087e565b610087565b6040516100629190610bba565b60405180910390f35b610085600480360381019061008091906108e1565b6100c0565b005b6000848484846040516020016100a09493929190610b0f565b604051602081830303815290604052805190602001209050949350505050565b60006100ce86868686610087565b905060006100db82610240565b905060006100f2848361027090919063ffffffff16565b90508773ffffffffffffffffffffffffffffffffffffffff168173ffffffffffffffffffffffffffffffffffffffff1614610162576040517f08c379a000000000000000000000000000000000000000000000000000000000815260040161015990610c7a565b60405180910390fd5b60008573ffffffffffffffffffffffffffffffffffffffff166323b872dd8a898b6040518463ffffffff1660e01b81526004016101a193929190610b83565b602060405180830381600087803b1580156101bb57600080fd5b505af11580156101cf573d6000803e3d6000fd5b505050506040513d601f19601f820116820180604052508101906101f39190610970565b905080610235576040517f08c379a000000000000000000000000000000000000000000000000000000000815260040161022c90610c5a565b60405180910390fd5b505050505050505050565b6000816040516020016102539190610b5d565b604051602081830303815290604052805190602001209050919050565b600080600061027f8585610297565b9150915061028c8161031a565b819250505092915050565b6000806041835114156102d95760008060006020860151925060408601519150606086015160001a90506102cd8782858561066b565b94509450505050610313565b60408351141561030a5760008060208501519150604085015190506102ff868383610778565b935093505050610313565b60006002915091505b9250929050565b60006004811115610354577f4e487b7100000000000000000000000000000000000000000000000000000000600052602160045260246000fd5b81600481111561038d577f4e487b7100000000000000000000000000000000000000000000000000000000600052602160045260246000fd5b141561039857610668565b600160048111156103d2577f4e487b7100000000000000000000000000000000000000000000000000000000600052602160045260246000fd5b81600481111561040b577f4e487b7100000000000000000000000000000000000000000000000000000000600052602160045260246000fd5b141561044c576040517f08c379a000000000000000000000000000000000000000000000000000000000815260040161044390610c1a565b60405180910390fd5b60026004811115610486577f4e487b7100000000000000000000000000000000000000000000000000000000600052602160045260246000fd5b8160048111156104bf577f4e487b7100000000000000000000000000000000000000000000000000000000600052602160045260246000fd5b1415610500576040517f08c379a00000000000000000000000000000000000000000000000000000000081526004016104f790610c3a565b60405180910390fd5b6003600481111561053a577f4e487b7100000000000000000000000000000000000000000000000000000000600052602160045260246000fd5b816004811115610573577f4e487b7100000000000000000000000000000000000000000000000000000000600052602160045260246000fd5b14156105b4576040517f08c379a00000000000000000000000000000000000000000000000000000000081526004016105ab90610c9a565b60405180910390fd5b6004808111156105ed577f4e487b7100000000000000000000000000000000000000000000000000000000600052602160045260246000fd5b816004811115610626577f4e487b7100000000000000000000000000000000000000000000000000000000600052602160045260246000fd5b1415610667576040517f08c379a000000000000000000000000000000000000000000000000000000000815260040161065e90610cba565b60405180910390fd5b5b50565b6000807f7fffffffffffffffffffffffffffffff5d576e7357a4501ddfe92f46681b20a08360001c11156106a657600060039150915061076f565b601b8560ff16141580156106be5750601c8560ff1614155b156106d057600060049150915061076f565b6000600187878787604051600081526020016040526040516106f59493929190610bd5565b6020604051602081039080840390855afa158015610717573d6000803e3d6000fd5b505050602060405103519050600073ffffffffffffffffffffffffffffffffffffffff168173ffffffffffffffffffffffffffffffffffffffff1614156107665760006001925092505061076f565b80600092509250505b94509492505050565b60008060007f7fffffffffffffffffffffffffffffffffffffffffffffffffffffffffffffff60001b841690506000601b60ff8660001c901c6107bb9190610d4c565b90506107c98782888561066b565b935093505050935093915050565b60006107ea6107e584610cff565b610cda565b90508281526020810184848401111561080257600080fd5b61080d848285610e01565b509392505050565b60008135905061082481611086565b92915050565b6000815190506108398161109d565b92915050565b600082601f83011261085057600080fd5b81356108608482602086016107d7565b91505092915050565b600081359050610878816110b4565b92915050565b6000806000806080858703121561089457600080fd5b60006108a287828801610815565b94505060206108b387828801610869565b93505060406108c487828801610815565b92505060606108d587828801610815565b91505092959194509250565b600080600080600060a086880312156108f957600080fd5b600061090788828901610815565b955050602061091888828901610869565b945050604061092988828901610815565b935050606061093a88828901610815565b925050608086013567ffffffffffffffff81111561095757600080fd5b6109638882890161083f565b9150509295509295909350565b60006020828403121561098257600080fd5b60006109908482850161082a565b91505092915050565b6109a281610da2565b82525050565b6109b96109b482610da2565b610e41565b82525050565b6109c881610dc0565b82525050565b6109df6109da82610dc0565b610e53565b82525050565b60006109f2601883610d30565b91506109fd82610ef5565b602082019050919050565b6000610a15601f83610d30565b9150610a2082610f1e565b602082019050919050565b6000610a38601c83610d41565b9150610a4382610f47565b601c82019050919050565b6000610a5b600f83610d30565b9150610a6682610f70565b602082019050919050565b6000610a7e602383610d30565b9150610a8982610f99565b604082019050919050565b6000610aa1602283610d30565b9150610aac82610fe8565b604082019050919050565b6000610ac4602283610d30565b9150610acf82611037565b604082019050919050565b610ae381610dea565b82525050565b610afa610af582610dea565b610e6f565b82525050565b610b0981610df4565b82525050565b6000610b1b82876109a8565b601482019150610b2b8286610ae9565b602082019150610b3b82856109a8565b601482019150610b4b82846109a8565b60148201915081905095945050505050565b6000610b6882610a2b565b9150610b7482846109ce565b60208201915081905092915050565b6000606082019050610b986000830186610999565b610ba56020830185610999565b610bb26040830184610ada565b949350505050565b6000602082019050610bcf60008301846109bf565b92915050565b6000608082019050610bea60008301876109bf565b610bf76020830186610b00565b610c0460408301856109bf565b610c1160608301846109bf565b95945050505050565b60006020820190508181036000830152610c33816109e5565b9050919050565b60006020820190508181036000830152610c5381610a08565b9050919050565b60006020820190508181036000830152610c7381610a4e565b9050919050565b60006020820190508181036000830152610c9381610a71565b9050919050565b60006020820190508181036000830152610cb381610a94565b9050919050565b60006020820190508181036000830152610cd381610ab7565b9050919050565b6000610ce4610cf5565b9050610cf08282610e10565b919050565b6000604051905090565b600067ffffffffffffffff821115610d1a57610d19610ea8565b5b610d2382610ed7565b9050602081019050919050565b600082825260208201905092915050565b600081905092915050565b6000610d5782610dea565b9150610d6283610dea565b9250827fffffffffffffffffffffffffffffffffffffffffffffffffffffffffffffffff03821115610d9757610d96610e79565b5b828201905092915050565b6000610dad82610dca565b9050919050565b60008115159050919050565b6000819050919050565b600073ffffffffffffffffffffffffffffffffffffffff82169050919050565b6000819050919050565b600060ff82169050919050565b82818337600083830152505050565b610e1982610ed7565b810181811067ffffffffffffffff82111715610e3857610e37610ea8565b5b80604052505050565b6000610e4c82610e5d565b9050919050565b6000819050919050565b6000610e6882610ee8565b9050919050565b6000819050919050565b7f4e487b7100000000000000000000000000000000000000000000000000000000600052601160045260246000fd5b7f4e487b7100000000000000000000000000000000000000000000000000000000600052604160045260246000fd5b6000601f19601f8301169050919050565b60008160601b9050919050565b7f45434453413a20696e76616c6964207369676e61747572650000000000000000600082015250565b7f45434453413a20696e76616c6964207369676e6174757265206c656e67746800600082015250565b7f19457468657265756d205369676e6564204d6573736167653a0a333200000000600082015250565b7f5472616e73666572206661696c65640000000000000000000000000000000000600082015250565b7f7369676e617475726520646f6573206e6f7420636f6d652066726f6d2073656e60008201527f6465720000000000000000000000000000000000000000000000000000000000602082015250565b7f45434453413a20696e76616c6964207369676e6174757265202773272076616c60008201527f7565000000000000000000000000000000000000000000000000000000000000602082015250565b7f45434453413a20696e76616c6964207369676e6174757265202776272076616c60008201527f7565000000000000000000000000000000000000000000000000000000000000602082015250565b61108f81610da2565b811461109a57600080fd5b50565b6110a681610db4565b81146110b157600080fd5b50565b6110bd81610dea565b81146110c857600080fd5b5056fea2646970667358221220edb1fdbd84dc9e2d1c159ce1187331f5d850f2cf7c07c6663d9a55da6c53110c64736f6c63430008040033",
          "opcodes": "PUSH1 0x80 PUSH1 0x40 MSTORE CALLVALUE DUP1 ISZERO PUSH2 0x10 JUMPI PUSH1 0x0 DUP1 REVERT JUMPDEST POP PUSH2 0x1101 DUP1 PUSH2 0x20 PUSH1 0x0 CODECOPY PUSH1 0x0 RETURN INVALID PUSH1 0x80 PUSH1 0x40 MSTORE CALLVALUE DUP1 ISZERO PUSH2 0x10 JUMPI PUSH1 0x0 DUP1 REVERT JUMPDEST POP PUSH1 0x4 CALLDATASIZE LT PUSH2 0x36 JUMPI PUSH1 0x0 CALLDATALOAD PUSH1 0xE0 SHR DUP1 PUSH4 0x6A023B60 EQ PUSH2 0x3B JUMPI DUP1 PUSH4 0xAAD14756 EQ PUSH2 0x6B JUMPI JUMPDEST PUSH1 0x0 DUP1 REVERT JUMPDEST PUSH2 0x55 PUSH1 0x4 DUP1 CALLDATASIZE SUB DUP2 ADD SWAP1 PUSH2 0x50 SWAP2 SWAP1 PUSH2 0x87E JUMP JUMPDEST PUSH2 0x87 JUMP JUMPDEST PUSH1 0x40 MLOAD PUSH2 0x62 SWAP2 SWAP1 PUSH2 0xBBA JUMP JUMPDEST PUSH1 0x40 MLOAD DUP1 SWAP2 SUB SWAP1 RETURN JUMPDEST PUSH2 0x85 PUSH1 0x4 DUP1 CALLDATASIZE SUB DUP2 ADD SWAP1 PUSH2 0x80 SWAP2 SWAP1 PUSH2 0x8E1 JUMP JUMPDEST PUSH2 0xC0 JUMP JUMPDEST STOP JUMPDEST PUSH1 0x0 DUP5 DUP5 DUP5 DUP5 PUSH1 0x40 MLOAD PUSH1 0x20 ADD PUSH2 0xA0 SWAP5 SWAP4 SWAP3 SWAP2 SWAP1 PUSH2 0xB0F JUMP JUMPDEST PUSH1 0x40 MLOAD PUSH1 0x20 DUP2 DUP4 SUB SUB DUP2 MSTORE SWAP1 PUSH1 0x40 MSTORE DUP1 MLOAD SWAP1 PUSH1 0x20 ADD KECCAK256 SWAP1 POP SWAP5 SWAP4 POP POP POP POP JUMP JUMPDEST PUSH1 0x0 PUSH2 0xCE DUP7 DUP7 DUP7 DUP7 PUSH2 0x87 JUMP JUMPDEST SWAP1 POP PUSH1 0x0 PUSH2 0xDB DUP3 PUSH2 0x240 JUMP JUMPDEST SWAP1 POP PUSH1 0x0 PUSH2 0xF2 DUP5 DUP4 PUSH2 0x270 SWAP1 SWAP2 SWAP1 PUSH4 0xFFFFFFFF AND JUMP JUMPDEST SWAP1 POP DUP8 PUSH20 0xFFFFFFFFFFFFFFFFFFFFFFFFFFFFFFFFFFFFFFFF AND DUP2 PUSH20 0xFFFFFFFFFFFFFFFFFFFFFFFFFFFFFFFFFFFFFFFF AND EQ PUSH2 0x162 JUMPI PUSH1 0x40 MLOAD PUSH32 0x8C379A000000000000000000000000000000000000000000000000000000000 DUP2 MSTORE PUSH1 0x4 ADD PUSH2 0x159 SWAP1 PUSH2 0xC7A JUMP JUMPDEST PUSH1 0x40 MLOAD DUP1 SWAP2 SUB SWAP1 REVERT JUMPDEST PUSH1 0x0 DUP6 PUSH20 0xFFFFFFFFFFFFFFFFFFFFFFFFFFFFFFFFFFFFFFFF AND PUSH4 0x23B872DD DUP11 DUP10 DUP12 PUSH1 0x40 MLOAD DUP5 PUSH4 0xFFFFFFFF AND PUSH1 0xE0 SHL DUP2 MSTORE PUSH1 0x4 ADD PUSH2 0x1A1 SWAP4 SWAP3 SWAP2 SWAP1 PUSH2 0xB83 JUMP JUMPDEST PUSH1 0x20 PUSH1 0x40 MLOAD DUP1 DUP4 SUB DUP2 PUSH1 0x0 DUP8 DUP1 EXTCODESIZE ISZERO DUP1 ISZERO PUSH2 0x1BB JUMPI PUSH1 0x0 DUP1 REVERT JUMPDEST POP GAS CALL ISZERO DUP1 ISZERO PUSH2 0x1CF JUMPI RETURNDATASIZE PUSH1 0x0 DUP1 RETURNDATACOPY RETURNDATASIZE PUSH1 0x0 REVERT JUMPDEST POP POP POP POP PUSH1 0x40 MLOAD RETURNDATASIZE PUSH1 0x1F NOT PUSH1 0x1F DUP3 ADD AND DUP3 ADD DUP1 PUSH1 0x40 MSTORE POP DUP2 ADD SWAP1 PUSH2 0x1F3 SWAP2 SWAP1 PUSH2 0x970 JUMP JUMPDEST SWAP1 POP DUP1 PUSH2 0x235 JUMPI PUSH1 0x40 MLOAD PUSH32 0x8C379A000000000000000000000000000000000000000000000000000000000 DUP2 MSTORE PUSH1 0x4 ADD PUSH2 0x22C SWAP1 PUSH2 0xC5A JUMP JUMPDEST PUSH1 0x40 MLOAD DUP1 SWAP2 SUB SWAP1 REVERT JUMPDEST POP POP POP POP POP POP POP POP POP JUMP JUMPDEST PUSH1 0x0 DUP2 PUSH1 0x40 MLOAD PUSH1 0x20 ADD PUSH2 0x253 SWAP2 SWAP1 PUSH2 0xB5D JUMP JUMPDEST PUSH1 0x40 MLOAD PUSH1 0x20 DUP2 DUP4 SUB SUB DUP2 MSTORE SWAP1 PUSH1 0x40 MSTORE DUP1 MLOAD SWAP1 PUSH1 0x20 ADD KECCAK256 SWAP1 POP SWAP2 SWAP1 POP JUMP JUMPDEST PUSH1 0x0 DUP1 PUSH1 0x0 PUSH2 0x27F DUP6 DUP6 PUSH2 0x297 JUMP JUMPDEST SWAP2 POP SWAP2 POP PUSH2 0x28C DUP2 PUSH2 0x31A JUMP JUMPDEST DUP2 SWAP3 POP POP POP SWAP3 SWAP2 POP POP JUMP JUMPDEST PUSH1 0x0 DUP1 PUSH1 0x41 DUP4 MLOAD EQ ISZERO PUSH2 0x2D9 JUMPI PUSH1 0x0 DUP1 PUSH1 0x0 PUSH1 0x20 DUP7 ADD MLOAD SWAP3 POP PUSH1 0x40 DUP7 ADD MLOAD SWAP2 POP PUSH1 0x60 DUP7 ADD MLOAD PUSH1 0x0 BYTE SWAP1 POP PUSH2 0x2CD DUP8 DUP3 DUP6 DUP6 PUSH2 0x66B JUMP JUMPDEST SWAP5 POP SWAP5 POP POP POP POP PUSH2 0x313 JUMP JUMPDEST PUSH1 0x40 DUP4 MLOAD EQ ISZERO PUSH2 0x30A JUMPI PUSH1 0x0 DUP1 PUSH1 0x20 DUP6 ADD MLOAD SWAP2 POP PUSH1 0x40 DUP6 ADD MLOAD SWAP1 POP PUSH2 0x2FF DUP7 DUP4 DUP4 PUSH2 0x778 JUMP JUMPDEST SWAP4 POP SWAP4 POP POP POP PUSH2 0x313 JUMP JUMPDEST PUSH1 0x0 PUSH1 0x2 SWAP2 POP SWAP2 POP JUMPDEST SWAP3 POP SWAP3 SWAP1 POP JUMP JUMPDEST PUSH1 0x0 PUSH1 0x4 DUP2 GT ISZERO PUSH2 0x354 JUMPI PUSH32 0x4E487B7100000000000000000000000000000000000000000000000000000000 PUSH1 0x0 MSTORE PUSH1 0x21 PUSH1 0x4 MSTORE PUSH1 0x24 PUSH1 0x0 REVERT JUMPDEST DUP2 PUSH1 0x4 DUP2 GT ISZERO PUSH2 0x38D JUMPI PUSH32 0x4E487B7100000000000000000000000000000000000000000000000000000000 PUSH1 0x0 MSTORE PUSH1 0x21 PUSH1 0x4 MSTORE PUSH1 0x24 PUSH1 0x0 REVERT JUMPDEST EQ ISZERO PUSH2 0x398 JUMPI PUSH2 0x668 JUMP JUMPDEST PUSH1 0x1 PUSH1 0x4 DUP2 GT ISZERO PUSH2 0x3D2 JUMPI PUSH32 0x4E487B7100000000000000000000000000000000000000000000000000000000 PUSH1 0x0 MSTORE PUSH1 0x21 PUSH1 0x4 MSTORE PUSH1 0x24 PUSH1 0x0 REVERT JUMPDEST DUP2 PUSH1 0x4 DUP2 GT ISZERO PUSH2 0x40B JUMPI PUSH32 0x4E487B7100000000000000000000000000000000000000000000000000000000 PUSH1 0x0 MSTORE PUSH1 0x21 PUSH1 0x4 MSTORE PUSH1 0x24 PUSH1 0x0 REVERT JUMPDEST EQ ISZERO PUSH2 0x44C JUMPI PUSH1 0x40 MLOAD PUSH32 0x8C379A000000000000000000000000000000000000000000000000000000000 DUP2 MSTORE PUSH1 0x4 ADD PUSH2 0x443 SWAP1 PUSH2 0xC1A JUMP JUMPDEST PUSH1 0x40 MLOAD DUP1 SWAP2 SUB SWAP1 REVERT JUMPDEST PUSH1 0x2 PUSH1 0x4 DUP2 GT ISZERO PUSH2 0x486 JUMPI PUSH32 0x4E487B7100000000000000000000000000000000000000000000000000000000 PUSH1 0x0 MSTORE PUSH1 0x21 PUSH1 0x4 MSTORE PUSH1 0x24 PUSH1 0x0 REVERT JUMPDEST DUP2 PUSH1 0x4 DUP2 GT ISZERO PUSH2 0x4BF JUMPI PUSH32 0x4E487B7100000000000000000000000000000000000000000000000000000000 PUSH1 0x0 MSTORE PUSH1 0x21 PUSH1 0x4 MSTORE PUSH1 0x24 PUSH1 0x0 REVERT JUMPDEST EQ ISZERO PUSH2 0x500 JUMPI PUSH1 0x40 MLOAD PUSH32 0x8C379A000000000000000000000000000000000000000000000000000000000 DUP2 MSTORE PUSH1 0x4 ADD PUSH2 0x4F7 SWAP1 PUSH2 0xC3A JUMP JUMPDEST PUSH1 0x40 MLOAD DUP1 SWAP2 SUB SWAP1 REVERT JUMPDEST PUSH1 0x3 PUSH1 0x4 DUP2 GT ISZERO PUSH2 0x53A JUMPI PUSH32 0x4E487B7100000000000000000000000000000000000000000000000000000000 PUSH1 0x0 MSTORE PUSH1 0x21 PUSH1 0x4 MSTORE PUSH1 0x24 PUSH1 0x0 REVERT JUMPDEST DUP2 PUSH1 0x4 DUP2 GT ISZERO PUSH2 0x573 JUMPI PUSH32 0x4E487B7100000000000000000000000000000000000000000000000000000000 PUSH1 0x0 MSTORE PUSH1 0x21 PUSH1 0x4 MSTORE PUSH1 0x24 PUSH1 0x0 REVERT JUMPDEST EQ ISZERO PUSH2 0x5B4 JUMPI PUSH1 0x40 MLOAD PUSH32 0x8C379A000000000000000000000000000000000000000000000000000000000 DUP2 MSTORE PUSH1 0x4 ADD PUSH2 0x5AB SWAP1 PUSH2 0xC9A JUMP JUMPDEST PUSH1 0x40 MLOAD DUP1 SWAP2 SUB SWAP1 REVERT JUMPDEST PUSH1 0x4 DUP1 DUP2 GT ISZERO PUSH2 0x5ED JUMPI PUSH32 0x4E487B7100000000000000000000000000000000000000000000000000000000 PUSH1 0x0 MSTORE PUSH1 0x21 PUSH1 0x4 MSTORE PUSH1 0x24 PUSH1 0x0 REVERT JUMPDEST DUP2 PUSH1 0x4 DUP2 GT ISZERO PUSH2 0x626 JUMPI PUSH32 0x4E487B7100000000000000000000000000000000000000000000000000000000 PUSH1 0x0 MSTORE PUSH1 0x21 PUSH1 0x4 MSTORE PUSH1 0x24 PUSH1 0x0 REVERT JUMPDEST EQ ISZERO PUSH2 0x667 JUMPI PUSH1 0x40 MLOAD PUSH32 0x8C379A000000000000000000000000000000000000000000000000000000000 DUP2 MSTORE PUSH1 0x4 ADD PUSH2 0x65E SWAP1 PUSH2 0xCBA JUMP JUMPDEST PUSH1 0x40 MLOAD DUP1 SWAP2 SUB SWAP1 REVERT JUMPDEST JUMPDEST POP JUMP JUMPDEST PUSH1 0x0 DUP1 PUSH32 0x7FFFFFFFFFFFFFFFFFFFFFFFFFFFFFFF5D576E7357A4501DDFE92F46681B20A0 DUP4 PUSH1 0x0 SHR GT ISZERO PUSH2 0x6A6 JUMPI PUSH1 0x0 PUSH1 0x3 SWAP2 POP SWAP2 POP PUSH2 0x76F JUMP JUMPDEST PUSH1 0x1B DUP6 PUSH1 0xFF AND EQ ISZERO DUP1 ISZERO PUSH2 0x6BE JUMPI POP PUSH1 0x1C DUP6 PUSH1 0xFF AND EQ ISZERO JUMPDEST ISZERO PUSH2 0x6D0 JUMPI PUSH1 0x0 PUSH1 0x4 SWAP2 POP SWAP2 POP PUSH2 0x76F JUMP JUMPDEST PUSH1 0x0 PUSH1 0x1 DUP8 DUP8 DUP8 DUP8 PUSH1 0x40 MLOAD PUSH1 0x0 DUP2 MSTORE PUSH1 0x20 ADD PUSH1 0x40 MSTORE PUSH1 0x40 MLOAD PUSH2 0x6F5 SWAP5 SWAP4 SWAP3 SWAP2 SWAP1 PUSH2 0xBD5 JUMP JUMPDEST PUSH1 0x20 PUSH1 0x40 MLOAD PUSH1 0x20 DUP2 SUB SWAP1 DUP1 DUP5 SUB SWAP1 DUP6 GAS STATICCALL ISZERO DUP1 ISZERO PUSH2 0x717 JUMPI RETURNDATASIZE PUSH1 0x0 DUP1 RETURNDATACOPY RETURNDATASIZE PUSH1 0x0 REVERT JUMPDEST POP POP POP PUSH1 0x20 PUSH1 0x40 MLOAD SUB MLOAD SWAP1 POP PUSH1 0x0 PUSH20 0xFFFFFFFFFFFFFFFFFFFFFFFFFFFFFFFFFFFFFFFF AND DUP2 PUSH20 0xFFFFFFFFFFFFFFFFFFFFFFFFFFFFFFFFFFFFFFFF AND EQ ISZERO PUSH2 0x766 JUMPI PUSH1 0x0 PUSH1 0x1 SWAP3 POP SWAP3 POP POP PUSH2 0x76F JUMP JUMPDEST DUP1 PUSH1 0x0 SWAP3 POP SWAP3 POP POP JUMPDEST SWAP5 POP SWAP5 SWAP3 POP POP POP JUMP JUMPDEST PUSH1 0x0 DUP1 PUSH1 0x0 PUSH32 0x7FFFFFFFFFFFFFFFFFFFFFFFFFFFFFFFFFFFFFFFFFFFFFFFFFFFFFFFFFFFFFFF PUSH1 0x0 SHL DUP5 AND SWAP1 POP PUSH1 0x0 PUSH1 0x1B PUSH1 0xFF DUP7 PUSH1 0x0 SHR SWAP1 SHR PUSH2 0x7BB SWAP2 SWAP1 PUSH2 0xD4C JUMP JUMPDEST SWAP1 POP PUSH2 0x7C9 DUP8 DUP3 DUP9 DUP6 PUSH2 0x66B JUMP JUMPDEST SWAP4 POP SWAP4 POP POP POP SWAP4 POP SWAP4 SWAP2 POP POP JUMP JUMPDEST PUSH1 0x0 PUSH2 0x7EA PUSH2 0x7E5 DUP5 PUSH2 0xCFF JUMP JUMPDEST PUSH2 0xCDA JUMP JUMPDEST SWAP1 POP DUP3 DUP2 MSTORE PUSH1 0x20 DUP2 ADD DUP5 DUP5 DUP5 ADD GT ISZERO PUSH2 0x802 JUMPI PUSH1 0x0 DUP1 REVERT JUMPDEST PUSH2 0x80D DUP5 DUP3 DUP6 PUSH2 0xE01 JUMP JUMPDEST POP SWAP4 SWAP3 POP POP POP JUMP JUMPDEST PUSH1 0x0 DUP2 CALLDATALOAD SWAP1 POP PUSH2 0x824 DUP2 PUSH2 0x1086 JUMP JUMPDEST SWAP3 SWAP2 POP POP JUMP JUMPDEST PUSH1 0x0 DUP2 MLOAD SWAP1 POP PUSH2 0x839 DUP2 PUSH2 0x109D JUMP JUMPDEST SWAP3 SWAP2 POP POP JUMP JUMPDEST PUSH1 0x0 DUP3 PUSH1 0x1F DUP4 ADD SLT PUSH2 0x850 JUMPI PUSH1 0x0 DUP1 REVERT JUMPDEST DUP2 CALLDATALOAD PUSH2 0x860 DUP5 DUP3 PUSH1 0x20 DUP7 ADD PUSH2 0x7D7 JUMP JUMPDEST SWAP2 POP POP SWAP3 SWAP2 POP POP JUMP JUMPDEST PUSH1 0x0 DUP2 CALLDATALOAD SWAP1 POP PUSH2 0x878 DUP2 PUSH2 0x10B4 JUMP JUMPDEST SWAP3 SWAP2 POP POP JUMP JUMPDEST PUSH1 0x0 DUP1 PUSH1 0x0 DUP1 PUSH1 0x80 DUP6 DUP8 SUB SLT ISZERO PUSH2 0x894 JUMPI PUSH1 0x0 DUP1 REVERT JUMPDEST PUSH1 0x0 PUSH2 0x8A2 DUP8 DUP3 DUP9 ADD PUSH2 0x815 JUMP JUMPDEST SWAP5 POP POP PUSH1 0x20 PUSH2 0x8B3 DUP8 DUP3 DUP9 ADD PUSH2 0x869 JUMP JUMPDEST SWAP4 POP POP PUSH1 0x40 PUSH2 0x8C4 DUP8 DUP3 DUP9 ADD PUSH2 0x815 JUMP JUMPDEST SWAP3 POP POP PUSH1 0x60 PUSH2 0x8D5 DUP8 DUP3 DUP9 ADD PUSH2 0x815 JUMP JUMPDEST SWAP2 POP POP SWAP3 SWAP6 SWAP2 SWAP5 POP SWAP3 POP JUMP JUMPDEST PUSH1 0x0 DUP1 PUSH1 0x0 DUP1 PUSH1 0x0 PUSH1 0xA0 DUP7 DUP9 SUB SLT ISZERO PUSH2 0x8F9 JUMPI PUSH1 0x0 DUP1 REVERT JUMPDEST PUSH1 0x0 PUSH2 0x907 DUP9 DUP3 DUP10 ADD PUSH2 0x815 JUMP JUMPDEST SWAP6 POP POP PUSH1 0x20 PUSH2 0x918 DUP9 DUP3 DUP10 ADD PUSH2 0x869 JUMP JUMPDEST SWAP5 POP POP PUSH1 0x40 PUSH2 0x929 DUP9 DUP3 DUP10 ADD PUSH2 0x815 JUMP JUMPDEST SWAP4 POP POP PUSH1 0x60 PUSH2 0x93A DUP9 DUP3 DUP10 ADD PUSH2 0x815 JUMP JUMPDEST SWAP3 POP POP PUSH1 0x80 DUP7 ADD CALLDATALOAD PUSH8 0xFFFFFFFFFFFFFFFF DUP2 GT ISZERO PUSH2 0x957 JUMPI PUSH1 0x0 DUP1 REVERT JUMPDEST PUSH2 0x963 DUP9 DUP3 DUP10 ADD PUSH2 0x83F JUMP JUMPDEST SWAP2 POP POP SWAP3 SWAP6 POP SWAP3 SWAP6 SWAP1 SWAP4 POP JUMP JUMPDEST PUSH1 0x0 PUSH1 0x20 DUP3 DUP5 SUB SLT ISZERO PUSH2 0x982 JUMPI PUSH1 0x0 DUP1 REVERT JUMPDEST PUSH1 0x0 PUSH2 0x990 DUP5 DUP3 DUP6 ADD PUSH2 0x82A JUMP JUMPDEST SWAP2 POP POP SWAP3 SWAP2 POP POP JUMP JUMPDEST PUSH2 0x9A2 DUP2 PUSH2 0xDA2 JUMP JUMPDEST DUP3 MSTORE POP POP JUMP JUMPDEST PUSH2 0x9B9 PUSH2 0x9B4 DUP3 PUSH2 0xDA2 JUMP JUMPDEST PUSH2 0xE41 JUMP JUMPDEST DUP3 MSTORE POP POP JUMP JUMPDEST PUSH2 0x9C8 DUP2 PUSH2 0xDC0 JUMP JUMPDEST DUP3 MSTORE POP POP JUMP JUMPDEST PUSH2 0x9DF PUSH2 0x9DA DUP3 PUSH2 0xDC0 JUMP JUMPDEST PUSH2 0xE53 JUMP JUMPDEST DUP3 MSTORE POP POP JUMP JUMPDEST PUSH1 0x0 PUSH2 0x9F2 PUSH1 0x18 DUP4 PUSH2 0xD30 JUMP JUMPDEST SWAP2 POP PUSH2 0x9FD DUP3 PUSH2 0xEF5 JUMP JUMPDEST PUSH1 0x20 DUP3 ADD SWAP1 POP SWAP2 SWAP1 POP JUMP JUMPDEST PUSH1 0x0 PUSH2 0xA15 PUSH1 0x1F DUP4 PUSH2 0xD30 JUMP JUMPDEST SWAP2 POP PUSH2 0xA20 DUP3 PUSH2 0xF1E JUMP JUMPDEST PUSH1 0x20 DUP3 ADD SWAP1 POP SWAP2 SWAP1 POP JUMP JUMPDEST PUSH1 0x0 PUSH2 0xA38 PUSH1 0x1C DUP4 PUSH2 0xD41 JUMP JUMPDEST SWAP2 POP PUSH2 0xA43 DUP3 PUSH2 0xF47 JUMP JUMPDEST PUSH1 0x1C DUP3 ADD SWAP1 POP SWAP2 SWAP1 POP JUMP JUMPDEST PUSH1 0x0 PUSH2 0xA5B PUSH1 0xF DUP4 PUSH2 0xD30 JUMP JUMPDEST SWAP2 POP PUSH2 0xA66 DUP3 PUSH2 0xF70 JUMP JUMPDEST PUSH1 0x20 DUP3 ADD SWAP1 POP SWAP2 SWAP1 POP JUMP JUMPDEST PUSH1 0x0 PUSH2 0xA7E PUSH1 0x23 DUP4 PUSH2 0xD30 JUMP JUMPDEST SWAP2 POP PUSH2 0xA89 DUP3 PUSH2 0xF99 JUMP JUMPDEST PUSH1 0x40 DUP3 ADD SWAP1 POP SWAP2 SWAP1 POP JUMP JUMPDEST PUSH1 0x0 PUSH2 0xAA1 PUSH1 0x22 DUP4 PUSH2 0xD30 JUMP JUMPDEST SWAP2 POP PUSH2 0xAAC DUP3 PUSH2 0xFE8 JUMP JUMPDEST PUSH1 0x40 DUP3 ADD SWAP1 POP SWAP2 SWAP1 POP JUMP JUMPDEST PUSH1 0x0 PUSH2 0xAC4 PUSH1 0x22 DUP4 PUSH2 0xD30 JUMP JUMPDEST SWAP2 POP PUSH2 0xACF DUP3 PUSH2 0x1037 JUMP JUMPDEST PUSH1 0x40 DUP3 ADD SWAP1 POP SWAP2 SWAP1 POP JUMP JUMPDEST PUSH2 0xAE3 DUP2 PUSH2 0xDEA JUMP JUMPDEST DUP3 MSTORE POP POP JUMP JUMPDEST PUSH2 0xAFA PUSH2 0xAF5 DUP3 PUSH2 0xDEA JUMP JUMPDEST PUSH2 0xE6F JUMP JUMPDEST DUP3 MSTORE POP POP JUMP JUMPDEST PUSH2 0xB09 DUP2 PUSH2 0xDF4 JUMP JUMPDEST DUP3 MSTORE POP POP JUMP JUMPDEST PUSH1 0x0 PUSH2 0xB1B DUP3 DUP8 PUSH2 0x9A8 JUMP JUMPDEST PUSH1 0x14 DUP3 ADD SWAP2 POP PUSH2 0xB2B DUP3 DUP7 PUSH2 0xAE9 JUMP JUMPDEST PUSH1 0x20 DUP3 ADD SWAP2 POP PUSH2 0xB3B DUP3 DUP6 PUSH2 0x9A8 JUMP JUMPDEST PUSH1 0x14 DUP3 ADD SWAP2 POP PUSH2 0xB4B DUP3 DUP5 PUSH2 0x9A8 JUMP JUMPDEST PUSH1 0x14 DUP3 ADD SWAP2 POP DUP2 SWAP1 POP SWAP6 SWAP5 POP POP POP POP POP JUMP JUMPDEST PUSH1 0x0 PUSH2 0xB68 DUP3 PUSH2 0xA2B JUMP JUMPDEST SWAP2 POP PUSH2 0xB74 DUP3 DUP5 PUSH2 0x9CE JUMP JUMPDEST PUSH1 0x20 DUP3 ADD SWAP2 POP DUP2 SWAP1 POP SWAP3 SWAP2 POP POP JUMP JUMPDEST PUSH1 0x0 PUSH1 0x60 DUP3 ADD SWAP1 POP PUSH2 0xB98 PUSH1 0x0 DUP4 ADD DUP7 PUSH2 0x999 JUMP JUMPDEST PUSH2 0xBA5 PUSH1 0x20 DUP4 ADD DUP6 PUSH2 0x999 JUMP JUMPDEST PUSH2 0xBB2 PUSH1 0x40 DUP4 ADD DUP5 PUSH2 0xADA JUMP JUMPDEST SWAP5 SWAP4 POP POP POP POP JUMP JUMPDEST PUSH1 0x0 PUSH1 0x20 DUP3 ADD SWAP1 POP PUSH2 0xBCF PUSH1 0x0 DUP4 ADD DUP5 PUSH2 0x9BF JUMP JUMPDEST SWAP3 SWAP2 POP POP JUMP JUMPDEST PUSH1 0x0 PUSH1 0x80 DUP3 ADD SWAP1 POP PUSH2 0xBEA PUSH1 0x0 DUP4 ADD DUP8 PUSH2 0x9BF JUMP JUMPDEST PUSH2 0xBF7 PUSH1 0x20 DUP4 ADD DUP7 PUSH2 0xB00 JUMP JUMPDEST PUSH2 0xC04 PUSH1 0x40 DUP4 ADD DUP6 PUSH2 0x9BF JUMP JUMPDEST PUSH2 0xC11 PUSH1 0x60 DUP4 ADD DUP5 PUSH2 0x9BF JUMP JUMPDEST SWAP6 SWAP5 POP POP POP POP POP JUMP JUMPDEST PUSH1 0x0 PUSH1 0x20 DUP3 ADD SWAP1 POP DUP2 DUP2 SUB PUSH1 0x0 DUP4 ADD MSTORE PUSH2 0xC33 DUP2 PUSH2 0x9E5 JUMP JUMPDEST SWAP1 POP SWAP2 SWAP1 POP JUMP JUMPDEST PUSH1 0x0 PUSH1 0x20 DUP3 ADD SWAP1 POP DUP2 DUP2 SUB PUSH1 0x0 DUP4 ADD MSTORE PUSH2 0xC53 DUP2 PUSH2 0xA08 JUMP JUMPDEST SWAP1 POP SWAP2 SWAP1 POP JUMP JUMPDEST PUSH1 0x0 PUSH1 0x20 DUP3 ADD SWAP1 POP DUP2 DUP2 SUB PUSH1 0x0 DUP4 ADD MSTORE PUSH2 0xC73 DUP2 PUSH2 0xA4E JUMP JUMPDEST SWAP1 POP SWAP2 SWAP1 POP JUMP JUMPDEST PUSH1 0x0 PUSH1 0x20 DUP3 ADD SWAP1 POP DUP2 DUP2 SUB PUSH1 0x0 DUP4 ADD MSTORE PUSH2 0xC93 DUP2 PUSH2 0xA71 JUMP JUMPDEST SWAP1 POP SWAP2 SWAP1 POP JUMP JUMPDEST PUSH1 0x0 PUSH1 0x20 DUP3 ADD SWAP1 POP DUP2 DUP2 SUB PUSH1 0x0 DUP4 ADD MSTORE PUSH2 0xCB3 DUP2 PUSH2 0xA94 JUMP JUMPDEST SWAP1 POP SWAP2 SWAP1 POP JUMP JUMPDEST PUSH1 0x0 PUSH1 0x20 DUP3 ADD SWAP1 POP DUP2 DUP2 SUB PUSH1 0x0 DUP4 ADD MSTORE PUSH2 0xCD3 DUP2 PUSH2 0xAB7 JUMP JUMPDEST SWAP1 POP SWAP2 SWAP1 POP JUMP JUMPDEST PUSH1 0x0 PUSH2 0xCE4 PUSH2 0xCF5 JUMP JUMPDEST SWAP1 POP PUSH2 0xCF0 DUP3 DUP3 PUSH2 0xE10 JUMP JUMPDEST SWAP2 SWAP1 POP JUMP JUMPDEST PUSH1 0x0 PUSH1 0x40 MLOAD SWAP1 POP SWAP1 JUMP JUMPDEST PUSH1 0x0 PUSH8 0xFFFFFFFFFFFFFFFF DUP3 GT ISZERO PUSH2 0xD1A JUMPI PUSH2 0xD19 PUSH2 0xEA8 JUMP JUMPDEST JUMPDEST PUSH2 0xD23 DUP3 PUSH2 0xED7 JUMP JUMPDEST SWAP1 POP PUSH1 0x20 DUP2 ADD SWAP1 POP SWAP2 SWAP1 POP JUMP JUMPDEST PUSH1 0x0 DUP3 DUP3 MSTORE PUSH1 0x20 DUP3 ADD SWAP1 POP SWAP3 SWAP2 POP POP JUMP JUMPDEST PUSH1 0x0 DUP2 SWAP1 POP SWAP3 SWAP2 POP POP JUMP JUMPDEST PUSH1 0x0 PUSH2 0xD57 DUP3 PUSH2 0xDEA JUMP JUMPDEST SWAP2 POP PUSH2 0xD62 DUP4 PUSH2 0xDEA JUMP JUMPDEST SWAP3 POP DUP3 PUSH32 0xFFFFFFFFFFFFFFFFFFFFFFFFFFFFFFFFFFFFFFFFFFFFFFFFFFFFFFFFFFFFFFFF SUB DUP3 GT ISZERO PUSH2 0xD97 JUMPI PUSH2 0xD96 PUSH2 0xE79 JUMP JUMPDEST JUMPDEST DUP3 DUP3 ADD SWAP1 POP SWAP3 SWAP2 POP POP JUMP JUMPDEST PUSH1 0x0 PUSH2 0xDAD DUP3 PUSH2 0xDCA JUMP JUMPDEST SWAP1 POP SWAP2 SWAP1 POP JUMP JUMPDEST PUSH1 0x0 DUP2 ISZERO ISZERO SWAP1 POP SWAP2 SWAP1 POP JUMP JUMPDEST PUSH1 0x0 DUP2 SWAP1 POP SWAP2 SWAP1 POP JUMP JUMPDEST PUSH1 0x0 PUSH20 0xFFFFFFFFFFFFFFFFFFFFFFFFFFFFFFFFFFFFFFFF DUP3 AND SWAP1 POP SWAP2 SWAP1 POP JUMP JUMPDEST PUSH1 0x0 DUP2 SWAP1 POP SWAP2 SWAP1 POP JUMP JUMPDEST PUSH1 0x0 PUSH1 0xFF DUP3 AND SWAP1 POP SWAP2 SWAP1 POP JUMP JUMPDEST DUP3 DUP2 DUP4 CALLDATACOPY PUSH1 0x0 DUP4 DUP4 ADD MSTORE POP POP POP JUMP JUMPDEST PUSH2 0xE19 DUP3 PUSH2 0xED7 JUMP JUMPDEST DUP2 ADD DUP2 DUP2 LT PUSH8 0xFFFFFFFFFFFFFFFF DUP3 GT OR ISZERO PUSH2 0xE38 JUMPI PUSH2 0xE37 PUSH2 0xEA8 JUMP JUMPDEST JUMPDEST DUP1 PUSH1 0x40 MSTORE POP POP POP JUMP JUMPDEST PUSH1 0x0 PUSH2 0xE4C DUP3 PUSH2 0xE5D JUMP JUMPDEST SWAP1 POP SWAP2 SWAP1 POP JUMP JUMPDEST PUSH1 0x0 DUP2 SWAP1 POP SWAP2 SWAP1 POP JUMP JUMPDEST PUSH1 0x0 PUSH2 0xE68 DUP3 PUSH2 0xEE8 JUMP JUMPDEST SWAP1 POP SWAP2 SWAP1 POP JUMP JUMPDEST PUSH1 0x0 DUP2 SWAP1 POP SWAP2 SWAP1 POP JUMP JUMPDEST PUSH32 0x4E487B7100000000000000000000000000000000000000000000000000000000 PUSH1 0x0 MSTORE PUSH1 0x11 PUSH1 0x4 MSTORE PUSH1 0x24 PUSH1 0x0 REVERT JUMPDEST PUSH32 0x4E487B7100000000000000000000000000000000000000000000000000000000 PUSH1 0x0 MSTORE PUSH1 0x41 PUSH1 0x4 MSTORE PUSH1 0x24 PUSH1 0x0 REVERT JUMPDEST PUSH1 0x0 PUSH1 0x1F NOT PUSH1 0x1F DUP4 ADD AND SWAP1 POP SWAP2 SWAP1 POP JUMP JUMPDEST PUSH1 0x0 DUP2 PUSH1 0x60 SHL SWAP1 POP SWAP2 SWAP1 POP JUMP JUMPDEST PUSH32 0x45434453413A20696E76616C6964207369676E61747572650000000000000000 PUSH1 0x0 DUP3 ADD MSTORE POP JUMP JUMPDEST PUSH32 0x45434453413A20696E76616C6964207369676E6174757265206C656E67746800 PUSH1 0x0 DUP3 ADD MSTORE POP JUMP JUMPDEST PUSH32 0x19457468657265756D205369676E6564204D6573736167653A0A333200000000 PUSH1 0x0 DUP3 ADD MSTORE POP JUMP JUMPDEST PUSH32 0x5472616E73666572206661696C65640000000000000000000000000000000000 PUSH1 0x0 DUP3 ADD MSTORE POP JUMP JUMPDEST PUSH32 0x7369676E617475726520646F6573206E6F7420636F6D652066726F6D2073656E PUSH1 0x0 DUP3 ADD MSTORE PUSH32 0x6465720000000000000000000000000000000000000000000000000000000000 PUSH1 0x20 DUP3 ADD MSTORE POP JUMP JUMPDEST PUSH32 0x45434453413A20696E76616C6964207369676E6174757265202773272076616C PUSH1 0x0 DUP3 ADD MSTORE PUSH32 0x7565000000000000000000000000000000000000000000000000000000000000 PUSH1 0x20 DUP3 ADD MSTORE POP JUMP JUMPDEST PUSH32 0x45434453413A20696E76616C6964207369676E6174757265202776272076616C PUSH1 0x0 DUP3 ADD MSTORE PUSH32 0x7565000000000000000000000000000000000000000000000000000000000000 PUSH1 0x20 DUP3 ADD MSTORE POP JUMP JUMPDEST PUSH2 0x108F DUP2 PUSH2 0xDA2 JUMP JUMPDEST DUP2 EQ PUSH2 0x109A JUMPI PUSH1 0x0 DUP1 REVERT JUMPDEST POP JUMP JUMPDEST PUSH2 0x10A6 DUP2 PUSH2 0xDB4 JUMP JUMPDEST DUP2 EQ PUSH2 0x10B1 JUMPI PUSH1 0x0 DUP1 REVERT JUMPDEST POP JUMP JUMPDEST PUSH2 0x10BD DUP2 PUSH2 0xDEA JUMP JUMPDEST DUP2 EQ PUSH2 0x10C8 JUMPI PUSH1 0x0 DUP1 REVERT JUMPDEST POP JUMP INVALID LOG2 PUSH5 0x6970667358 0x22 SLT KECCAK256 0xED 0xB1 REVERT 0xBD DUP5 0xDC SWAP15 0x2D SHR ISZERO SWAP13 0xE1 XOR PUSH20 0x31F5D850F2CF7C07C6663D9A55DA6C53110C6473 PUSH16 0x6C634300080400330000000000000000 "
        },
        "methodIdentifiers": {
          "getHash(address,uint256,address,address)": "6a023b60",
          "transfer(address,uint256,address,address,bytes)": "aad14756"
        }
      }
    }
  }
}