{
  "_format": "hh-sol-artifact-1",
  "contractName": "TokenSender",
  "sourceName": "contracts/MetaTokenTx.sol",
  "abi": [
    {
      "inputs": [
        {
          "internalType": "address",
          "name": "sender",
          "type": "address"
        },
        {
          "internalType": "uint256",
          "name": "amount",
          "type": "uint256"
        },
        {
          "internalType": "address",
          "name": "recipient",
          "type": "address"
        },
        {
          "internalType": "address",
          "name": "tokenContract",
          "type": "address"
        },
        {
          "internalType": "uint256",
          "name": "nonce",
          "type": "uint256"
        }
      ],
      "name": "getHash",
      "outputs": [
        {
          "internalType": "bytes32",
          "name": "",
          "type": "bytes32"
        }
      ],
      "stateMutability": "pure",
      "type": "function"
    },
    {
      "inputs": [
        {
          "internalType": "address",
          "name": "sender",
          "type": "address"
        },
        {
          "internalType": "uint256",
          "name": "amount",
          "type": "uint256"
        },
        {
          "internalType": "address",
          "name": "recipient",
          "type": "address"
        },
        {
          "internalType": "address",
          "name": "tokenContract",
          "type": "address"
        },
        {
          "internalType": "uint256",
          "name": "nonce",
          "type": "uint256"
        },
        {
          "internalType": "bytes",
          "name": "signature",
          "type": "bytes"
        }
      ],
      "name": "transfer",
      "outputs": [],
      "stateMutability": "nonpayable",
      "type": "function"
    }
  ],
  "bytecode": "0x608060405234801561001057600080fd5b50611234806100206000396000f3fe608060405234801561001057600080fd5b50600436106100365760003560e01c80635c1823c81461003b578063dd506b451461006b575b600080fd5b6100556004803603810190610050919061090e565b610087565b6040516100629190610ca4565b60405180910390f35b61008560048036038101906100809190610985565b6100c3565b005b600085858585856040516020016100a2959493929190610be8565b60405160208183030381529060405280519060200120905095945050505050565b60006100d28787878787610087565b905060006100df826102d0565b905060008082815260200190815260200160002060009054906101000a900460ff1615610141576040517f08c379a000000000000000000000000000000000000000000000000000000000815260040161013890610da4565b60405180910390fd5b6000610156848361030090919063ffffffff16565b90508873ffffffffffffffffffffffffffffffffffffffff168173ffffffffffffffffffffffffffffffffffffffff16146101c6576040517f08c379a00000000000000000000000000000000000000000000000000000000081526004016101bd90610d64565b60405180910390fd5b600160008084815260200190815260200160002060006101000a81548160ff02191690831515021790555060008673ffffffffffffffffffffffffffffffffffffffff166323b872dd8b8a8c6040518463ffffffff1660e01b815260040161023093929190610c6d565b602060405180830381600087803b15801561024a57600080fd5b505af115801561025e573d6000803e3d6000fd5b505050506040513d601f19601f820116820180604052508101906102829190610a26565b9050806102c4576040517f08c379a00000000000000000000000000000000000000000000000000000000081526004016102bb90610d44565b60405180910390fd5b50505050505050505050565b6000816040516020016102e39190610c47565b604051602081830303815290604052805190602001209050919050565b600080600061030f8585610327565b9150915061031c816103aa565b819250505092915050565b6000806041835114156103695760008060006020860151925060408601519150606086015160001a905061035d878285856106fb565b945094505050506103a3565b60408351141561039a57600080602085015191506040850151905061038f868383610808565b9350935050506103a3565b60006002915091505b9250929050565b600060048111156103e4577f4e487b7100000000000000000000000000000000000000000000000000000000600052602160045260246000fd5b81600481111561041d577f4e487b7100000000000000000000000000000000000000000000000000000000600052602160045260246000fd5b1415610428576106f8565b60016004811115610462577f4e487b7100000000000000000000000000000000000000000000000000000000600052602160045260246000fd5b81600481111561049b577f4e487b7100000000000000000000000000000000000000000000000000000000600052602160045260246000fd5b14156104dc576040517f08c379a00000000000000000000000000000000000000000000000000000000081526004016104d390610d04565b60405180910390fd5b60026004811115610516577f4e487b7100000000000000000000000000000000000000000000000000000000600052602160045260246000fd5b81600481111561054f577f4e487b7100000000000000000000000000000000000000000000000000000000600052602160045260246000fd5b1415610590576040517f08c379a000000000000000000000000000000000000000000000000000000000815260040161058790610d24565b60405180910390fd5b600360048111156105ca577f4e487b7100000000000000000000000000000000000000000000000000000000600052602160045260246000fd5b816004811115610603577f4e487b7100000000000000000000000000000000000000000000000000000000600052602160045260246000fd5b1415610644576040517f08c379a000000000000000000000000000000000000000000000000000000000815260040161063b90610d84565b60405180910390fd5b60048081111561067d577f4e487b7100000000000000000000000000000000000000000000000000000000600052602160045260246000fd5b8160048111156106b6577f4e487b7100000000000000000000000000000000000000000000000000000000600052602160045260246000fd5b14156106f7576040517f08c379a00000000000000000000000000000000000000000000000000000000081526004016106ee90610dc4565b60405180910390fd5b5b50565b6000807f7fffffffffffffffffffffffffffffff5d576e7357a4501ddfe92f46681b20a08360001c11156107365760006003915091506107ff565b601b8560ff161415801561074e5750601c8560ff1614155b156107605760006004915091506107ff565b6000600187878787604051600081526020016040526040516107859493929190610cbf565b6020604051602081039080840390855afa1580156107a7573d6000803e3d6000fd5b505050602060405103519050600073ffffffffffffffffffffffffffffffffffffffff168173ffffffffffffffffffffffffffffffffffffffff1614156107f6576000600192509250506107ff565b80600092509250505b94509492505050565b60008060007f7fffffffffffffffffffffffffffffffffffffffffffffffffffffffffffffff60001b841690506000601b60ff8660001c901c61084b9190610e56565b9050610859878288856106fb565b935093505050935093915050565b600061087a61087584610e09565b610de4565b90508281526020810184848401111561089257600080fd5b61089d848285610f0b565b509392505050565b6000813590506108b4816111b9565b92915050565b6000815190506108c9816111d0565b92915050565b600082601f8301126108e057600080fd5b81356108f0848260208601610867565b91505092915050565b600081359050610908816111e7565b92915050565b600080600080600060a0868803121561092657600080fd5b6000610934888289016108a5565b9550506020610945888289016108f9565b9450506040610956888289016108a5565b9350506060610967888289016108a5565b9250506080610978888289016108f9565b9150509295509295909350565b60008060008060008060c0878903121561099e57600080fd5b60006109ac89828a016108a5565b96505060206109bd89828a016108f9565b95505060406109ce89828a016108a5565b94505060606109df89828a016108a5565b93505060806109f089828a016108f9565b92505060a087013567ffffffffffffffff811115610a0d57600080fd5b610a1989828a016108cf565b9150509295509295509295565b600060208284031215610a3857600080fd5b6000610a46848285016108ba565b91505092915050565b610a5881610eac565b82525050565b610a6f610a6a82610eac565b610f4b565b82525050565b610a7e81610eca565b82525050565b610a95610a9082610eca565b610f5d565b82525050565b6000610aa8601883610e3a565b9150610ab382610fff565b602082019050919050565b6000610acb601f83610e3a565b9150610ad682611028565b602082019050919050565b6000610aee601c83610e4b565b9150610af982611051565b601c82019050919050565b6000610b11600f83610e3a565b9150610b1c8261107a565b602082019050919050565b6000610b34602383610e3a565b9150610b3f826110a3565b604082019050919050565b6000610b57602283610e3a565b9150610b62826110f2565b604082019050919050565b6000610b7a601083610e3a565b9150610b8582611141565b602082019050919050565b6000610b9d602283610e3a565b9150610ba88261116a565b604082019050919050565b610bbc81610ef4565b82525050565b610bd3610bce82610ef4565b610f79565b82525050565b610be281610efe565b82525050565b6000610bf48288610a5e565b601482019150610c048287610bc2565b602082019150610c148286610a5e565b601482019150610c248285610a5e565b601482019150610c348284610bc2565b6020820191508190509695505050505050565b6000610c5282610ae1565b9150610c5e8284610a84565b60208201915081905092915050565b6000606082019050610c826000830186610a4f565b610c8f6020830185610a4f565b610c9c6040830184610bb3565b949350505050565b6000602082019050610cb96000830184610a75565b92915050565b6000608082019050610cd46000830187610a75565b610ce16020830186610bd9565b610cee6040830185610a75565b610cfb6060830184610a75565b95945050505050565b60006020820190508181036000830152610d1d81610a9b565b9050919050565b60006020820190508181036000830152610d3d81610abe565b9050919050565b60006020820190508181036000830152610d5d81610b04565b9050919050565b60006020820190508181036000830152610d7d81610b27565b9050919050565b60006020820190508181036000830152610d9d81610b4a565b9050919050565b60006020820190508181036000830152610dbd81610b6d565b9050919050565b60006020820190508181036000830152610ddd81610b90565b9050919050565b6000610dee610dff565b9050610dfa8282610f1a565b919050565b6000604051905090565b600067ffffffffffffffff821115610e2457610e23610fb2565b5b610e2d82610fe1565b9050602081019050919050565b600082825260208201905092915050565b600081905092915050565b6000610e6182610ef4565b9150610e6c83610ef4565b9250827fffffffffffffffffffffffffffffffffffffffffffffffffffffffffffffffff03821115610ea157610ea0610f83565b5b828201905092915050565b6000610eb782610ed4565b9050919050565b60008115159050919050565b6000819050919050565b600073ffffffffffffffffffffffffffffffffffffffff82169050919050565b6000819050919050565b600060ff82169050919050565b82818337600083830152505050565b610f2382610fe1565b810181811067ffffffffffffffff82111715610f4257610f41610fb2565b5b80604052505050565b6000610f5682610f67565b9050919050565b6000819050919050565b6000610f7282610ff2565b9050919050565b6000819050919050565b7f4e487b7100000000000000000000000000000000000000000000000000000000600052601160045260246000fd5b7f4e487b7100000000000000000000000000000000000000000000000000000000600052604160045260246000fd5b6000601f19601f8301169050919050565b60008160601b9050919050565b7f45434453413a20696e76616c6964207369676e61747572650000000000000000600082015250565b7f45434453413a20696e76616c6964207369676e6174757265206c656e67746800600082015250565b7f19457468657265756d205369676e6564204d6573736167653a0a333200000000600082015250565b7f5472616e73666572206661696c65640000000000000000000000000000000000600082015250565b7f7369676e617475726520646f6573206e6f7420636f6d652066726f6d2073656e60008201527f6465720000000000000000000000000000000000000000000000000000000000602082015250565b7f45434453413a20696e76616c6964207369676e6174757265202773272076616c60008201527f7565000000000000000000000000000000000000000000000000000000000000602082015250565b7f416c726561647920657865637574656400000000000000000000000000000000600082015250565b7f45434453413a20696e76616c6964207369676e6174757265202776272076616c60008201527f7565000000000000000000000000000000000000000000000000000000000000602082015250565b6111c281610eac565b81146111cd57600080fd5b50565b6111d981610ebe565b81146111e457600080fd5b50565b6111f081610ef4565b81146111fb57600080fd5b5056fea264697066735822122078afe34b1b284869e85c6e1863ff2174f4e679f718b4557ead31f91834e4cd7064736f6c63430008040033",
  "linkReferences": {},
  "deployedLinkReferences": {}
}